{
  "_format": "hh-sol-artifact-1",
  "contractName": "FlowerPortal",
  "sourceName": "contracts/FlowerPortal.sol",
  "abi": [
    {
      "inputs": [],
      "stateMutability": "payable",
      "type": "constructor"
    },
    {
      "anonymous": false,
      "inputs": [
        {
          "indexed": true,
          "internalType": "address",
          "name": "from",
          "type": "address"
        },
        {
          "indexed": false,
          "internalType": "uint256",
          "name": "timestamp",
          "type": "uint256"
        },
        {
          "indexed": false,
          "internalType": "string",
          "name": "message",
          "type": "string"
        }
      ],
      "name": "NewFlower",
      "type": "event"
    },
    {
      "inputs": [
        {
          "internalType": "string",
          "name": "_message",
          "type": "string"
        }
      ],
      "name": "flower",
      "outputs": [],
      "stateMutability": "nonpayable",
      "type": "function"
    },
    {
      "inputs": [],
      "name": "getAllFlowers",
      "outputs": [
        {
          "components": [
            {
              "internalType": "address",
              "name": "planter",
              "type": "address"
            },
            {
              "internalType": "string",
              "name": "message",
              "type": "string"
            },
            {
              "internalType": "uint256",
              "name": "timestamp",
              "type": "uint256"
            }
          ],
          "internalType": "struct FlowerPortal.Flower[]",
          "name": "",
          "type": "tuple[]"
        }
      ],
      "stateMutability": "view",
      "type": "function"
    },
    {
      "inputs": [],
      "name": "getTotalFlowers",
      "outputs": [
        {
          "internalType": "uint256",
          "name": "",
          "type": "uint256"
        }
      ],
      "stateMutability": "view",
      "type": "function"
    },
    {
      "inputs": [
        {
          "internalType": "address",
          "name": "",
          "type": "address"
        }
      ],
      "name": "lastPlantedAt",
      "outputs": [
        {
          "internalType": "uint256",
          "name": "",
          "type": "uint256"
        }
      ],
      "stateMutability": "view",
      "type": "function"
    }
  ],
  "bytecode": "0x60806040526200004f6040518060400160405280601981526020017f57652068617665206265656e20636f6e73747275637465642100000000000000815250620000c560201b620006881760201c565b606444426200005f9190620002fd565b6200006b91906200039a565b600181905550620000bf6040518060400160405280600581526020017f73656564200000000000000000000000000000000000000000000000000000008152506001546200016860201b620007211760201c565b62000441565b6200016581604051602401620000dc919062000289565b6040516020818303038152906040527f41304fac000000000000000000000000000000000000000000000000000000007bffffffffffffffffffffffffffffffffffffffffffffffffffffffff19166020820180517bffffffffffffffffffffffffffffffffffffffffffffffffffffffff83818316178352505050506200020e60201b60201c565b50565b6200020a828260405160240162000181929190620002ad565b6040516020818303038152906040527f9710a9d0000000000000000000000000000000000000000000000000000000007bffffffffffffffffffffffffffffffffffffffffffffffffffffffff19166020820180517bffffffffffffffffffffffffffffffffffffffffffffffffffffffff83818316178352505050506200020e60201b60201c565b5050565b60008151905060006a636f6e736f6c652e6c6f679050602083016000808483855afa5050505050565b60006200024482620002e1565b620002508185620002ec565b93506200026281856020860162000364565b6200026d8162000430565b840191505092915050565b62000283816200035a565b82525050565b60006020820190508181036000830152620002a5818462000237565b905092915050565b60006040820190508181036000830152620002c9818562000237565b9050620002da602083018462000278565b9392505050565b600081519050919050565b600082825260208201905092915050565b60006200030a826200035a565b915062000317836200035a565b9250827fffffffffffffffffffffffffffffffffffffffffffffffffffffffffffffffff038211156200034f576200034e620003d2565b5b828201905092915050565b6000819050919050565b60005b838110156200038457808201518184015260208101905062000367565b8381111562000394576000848401525b50505050565b6000620003a7826200035a565b9150620003b4836200035a565b925082620003c757620003c662000401565b5b828206905092915050565b7f4e487b7100000000000000000000000000000000000000000000000000000000600052601160045260246000fd5b7f4e487b7100000000000000000000000000000000000000000000000000000000600052601260045260246000fd5b6000601f19601f8301169050919050565b61119680620004516000396000f3fe608060405234801561001057600080fd5b506004361061004c5760003560e01c8063324777cd146100515780633c7c430f1461006f5780634253d8ca1461008b57806359b0c557146100a9575b600080fd5b6100596100d9565b6040516100669190610c34565b60405180910390f35b610089600480360381019061008491906109cb565b61022a565b005b610093610625565b6040516100a09190610d38565b60405180910390f35b6100c360048036038101906100be91906109a2565b610670565b6040516100d09190610d38565b60405180910390f35b60606002805480602002602001604051908101604052809291908181526020016000905b8282101561022157838290600052602060002090600302016040518060600160405290816000820160009054906101000a900473ffffffffffffffffffffffffffffffffffffffff1673ffffffffffffffffffffffffffffffffffffffff1673ffffffffffffffffffffffffffffffffffffffff16815260200160018201805461018690610f1e565b80601f01602080910402602001604051908101604052809291908181526020018280546101b290610f1e565b80156101ff5780601f106101d4576101008083540402835291602001916101ff565b820191906000526020600020905b8154815290600101906020018083116101e257829003601f168201915b50505050508152602001600282015481525050815260200190600101906100fd565b50505050905090565b42610708600360003373ffffffffffffffffffffffffffffffffffffffff1673ffffffffffffffffffffffffffffffffffffffff168152602001908152602001600020546102789190610e4a565b106102b8576040517f08c379a00000000000000000000000000000000000000000000000000000000081526004016102af90610d18565b60405180910390fd5b42600360003373ffffffffffffffffffffffffffffffffffffffff1673ffffffffffffffffffffffffffffffffffffffff16815260200190815260200160002081905550600160008082825461030e9190610e4a565b925050819055506103546040518060400160405280601781526020017f25732068617320706c616e746564206120666c6f776572000000000000000000815250336107bd565b600260405180606001604052803373ffffffffffffffffffffffffffffffffffffffff16815260200183815260200142815250908060018154018082558091505060019003906000526020600020906003020160009091909190915060008201518160000160006101000a81548173ffffffffffffffffffffffffffffffffffffffff021916908373ffffffffffffffffffffffffffffffffffffffff1602179055506020820151816001019080519060200190610413929190610882565b50604082015181600201555050606460015442446104319190610e4a565b61043b9190610e4a565b6104459190610f81565b60018190555061048c6040518060400160405280600a81526020017f6e65787420736565642000000000000000000000000000000000000000000000815250600154610721565b6032600154116105d2576104d56040518060400160405280600781526020017f257320776f6e2100000000000000000000000000000000000000000000000000815250336107bd565b6000655af3107a4000905047811115610523576040517f08c379a000000000000000000000000000000000000000000000000000000000815260040161051a90610cd8565b60405180910390fd5b60003373ffffffffffffffffffffffffffffffffffffffff168260405161054990610c1f565b60006040518083038185875af1925050503d8060008114610586576040519150601f19603f3d011682016040523d82523d6000602084013e61058b565b606091505b50509050806105cf576040517f08c379a00000000000000000000000000000000000000000000000000000000081526004016105c690610cf8565b60405180910390fd5b50505b3373ffffffffffffffffffffffffffffffffffffffff167f3ab5caf3e2798496336449e0a5a2e84a8ec925d90b84ee1a57d3b2ba89fc6aae428360405161061a929190610d53565b60405180910390a250565b60006106686040518060400160405280601381526020017f7765206861766520256420666c6f776572732100000000000000000000000000815250600054610721565b600054905090565b60036020528060005260406000206000915090505481565b61071e8160405160240161069c9190610c56565b6040516020818303038152906040527f41304fac000000000000000000000000000000000000000000000000000000007bffffffffffffffffffffffffffffffffffffffffffffffffffffffff19166020820180517bffffffffffffffffffffffffffffffffffffffffffffffffffffffff8381831617835250505050610859565b50565b6107b98282604051602401610737929190610ca8565b6040516020818303038152906040527f9710a9d0000000000000000000000000000000000000000000000000000000007bffffffffffffffffffffffffffffffffffffffffffffffffffffffff19166020820180517bffffffffffffffffffffffffffffffffffffffffffffffffffffffff8381831617835250505050610859565b5050565b61085582826040516024016107d3929190610c78565b6040516020818303038152906040527f319af333000000000000000000000000000000000000000000000000000000007bffffffffffffffffffffffffffffffffffffffffffffffffffffffff19166020820180517bffffffffffffffffffffffffffffffffffffffffffffffffffffffff8381831617835250505050610859565b5050565b60008151905060006a636f6e736f6c652e6c6f679050602083016000808483855afa5050505050565b82805461088e90610f1e565b90600052602060002090601f0160209004810192826108b057600085556108f7565b82601f106108c957805160ff19168380011785556108f7565b828001600101855582156108f7579182015b828111156108f65782518255916020019190600101906108db565b5b5090506109049190610908565b5090565b5b80821115610921576000816000905550600101610909565b5090565b600061093861093384610da8565b610d83565b90508281526020810184848401111561095057600080fd5b61095b848285610edc565b509392505050565b60008135905061097281611149565b92915050565b600082601f83011261098957600080fd5b8135610999848260208601610925565b91505092915050565b6000602082840312156109b457600080fd5b60006109c284828501610963565b91505092915050565b6000602082840312156109dd57600080fd5b600082013567ffffffffffffffff8111156109f757600080fd5b610a0384828501610978565b91505092915050565b6000610a188383610bb1565b905092915050565b610a2981610ea0565b82525050565b610a3881610ea0565b82525050565b6000610a4982610de9565b610a538185610e0c565b935083602082028501610a6585610dd9565b8060005b85811015610aa15784840389528151610a828582610a0c565b9450610a8d83610dff565b925060208a01995050600181019050610a69565b50829750879550505050505092915050565b6000610abe82610df4565b610ac88185610e28565b9350610ad8818560208601610eeb565b610ae18161106e565b840191505092915050565b6000610af782610df4565b610b018185610e39565b9350610b11818560208601610eeb565b610b1a8161106e565b840191505092915050565b6000610b32603483610e39565b9150610b3d8261107f565b604082019050919050565b6000610b55602783610e39565b9150610b60826110ce565b604082019050919050565b6000610b78600083610e1d565b9150610b838261111d565b600082019050919050565b6000610b9b601e83610e39565b9150610ba682611120565b602082019050919050565b6000606083016000830151610bc96000860182610a20565b5060208301518482036020860152610be18282610ab3565b9150506040830151610bf66040860182610c01565b508091505092915050565b610c0a81610ed2565b82525050565b610c1981610ed2565b82525050565b6000610c2a82610b6b565b9150819050919050565b60006020820190508181036000830152610c4e8184610a3e565b905092915050565b60006020820190508181036000830152610c708184610aec565b905092915050565b60006040820190508181036000830152610c928185610aec565b9050610ca16020830184610a2f565b9392505050565b60006040820190508181036000830152610cc28185610aec565b9050610cd16020830184610c10565b9392505050565b60006020820190508181036000830152610cf181610b25565b9050919050565b60006020820190508181036000830152610d1181610b48565b9050919050565b60006020820190508181036000830152610d3181610b8e565b9050919050565b6000602082019050610d4d6000830184610c10565b92915050565b6000604082019050610d686000830185610c10565b8181036020830152610d7a8184610aec565b90509392505050565b6000610d8d610d9e565b9050610d998282610f50565b919050565b6000604051905090565b600067ffffffffffffffff821115610dc357610dc261103f565b5b610dcc8261106e565b9050602081019050919050565b6000819050602082019050919050565b600081519050919050565b600081519050919050565b6000602082019050919050565b600082825260208201905092915050565b600081905092915050565b600082825260208201905092915050565b600082825260208201905092915050565b6000610e5582610ed2565b9150610e6083610ed2565b9250827fffffffffffffffffffffffffffffffffffffffffffffffffffffffffffffffff03821115610e9557610e94610fb2565b5b828201905092915050565b6000610eab82610eb2565b9050919050565b600073ffffffffffffffffffffffffffffffffffffffff82169050919050565b6000819050919050565b82818337600083830152505050565b60005b83811015610f09578082015181840152602081019050610eee565b83811115610f18576000848401525b50505050565b60006002820490506001821680610f3657607f821691505b60208210811415610f4a57610f49611010565b5b50919050565b610f598261106e565b810181811067ffffffffffffffff82111715610f7857610f7761103f565b5b80604052505050565b6000610f8c82610ed2565b9150610f9783610ed2565b925082610fa757610fa6610fe1565b5b828206905092915050565b7f4e487b7100000000000000000000000000000000000000000000000000000000600052601160045260246000fd5b7f4e487b7100000000000000000000000000000000000000000000000000000000600052601260045260246000fd5b7f4e487b7100000000000000000000000000000000000000000000000000000000600052602260045260246000fd5b7f4e487b7100000000000000000000000000000000000000000000000000000000600052604160045260246000fd5b6000601f19601f8301169050919050565b7f547279696e6720746f207769746864726177206d6f7265206d6f6e657920746860008201527f616e2074686520636f6e7472616374206861732e000000000000000000000000602082015250565b7f4661696c656420746f207769746864726177206d6f6e65792066726f6d20636f60008201527f6e74726163742e00000000000000000000000000000000000000000000000000602082015250565b50565b7f576169742033306d696e206265666f726520776176696e6720616761696e0000600082015250565b61115281610ea0565b811461115d57600080fd5b5056fea2646970667358221220c633d9a593cc0f3ff8e15d2aab45a5a1853c6160354a83c5ea5d3bfac1707fd064736f6c63430008040033",
  "linkReferences": {},
  "deployedLinkReferences": {}
}